:020000040800F2
:1000000010070020B5010008CD140008C514000831
:10001000C914000871020008E9150008000000007A
:10002000000000000000000000000000D5140008DF
:100030007502000800000000D1140008D91400085F
:10004000CF010008CF010008CF010008CF01000850
:10005000CF010008CF010008CF010008CF01000840
:10006000CF010008CF010008CF010008CF01000830
:10007000CF010008CF010008CF010008CF01000820
:10008000CF010008CF010008CF010008CF01000810
:10009000CF010008CF010008CF010008CF01000800
:1000A000CF010008CF010008CF010008CF010008F0
:1000B000E1140008CF010008CF010008CF010008BB
:1000C000CF010008CF010008CF010008CF010008D0
:1000D000CF010008CF010008CF010008CF010008C0
:1000E000CF010008CF010008CF01000800F002F89E
:1000F00000F050F814A696E8000CB244B344DA4578
:1001000001D100F047F8BAE80F000FA696E83000DA
:10011000A5EB040504EB0607AAEB0704A7F101070A
:100120004FEA15154FEA3414A4F10104AC4201D38F
:1001300000F030F813F0010F18BFFB1A43F0010371
:1001400000F001F8DBE71847701600009016000079
:10015000103A24BF78C878C1FAD8520724BF30C8F3
:1001600030C144BF04680C60704700007047000055
:100170000023002400250026103A28BF78C1FBD8B0
:10018000520728BF30C148BF0B6070471FB51FBD65
:1001900010B510BD00F031F81146FFF7F7FF01F080
:1001A00025FA00F04FF803B4FFF7F2FF03BC00F0AC
:1001B00057F800000948804709480047FEE7FEE776
:1001C000FEE7FEE7FEE7FEE7FEE7FEE7FEE7FEE707
:1001D00004480549054A064B70470000DD14000835
:1001E000ED0000081001002010070020100300207F
:1001F00010030020704770477047754600F02CF8D8
:10020000AE4605006946534620F00700854618B003
:1002100020B5FFF7DDFFBDE820404FF000064FF0AE
:1002200000074FF000084FF0000BAC46ACE8C009E7
:10023000ACE8C009ACE8C009ACE8C00921F007018E
:100240008D46704710B50446AFF300802046BDE8E8
:100250001040FFF7A8BF000000487047580000207A
:1002600001491820ABBEFEE72600020070470000DF
:10027000FEE70000704700002DE9F04F82B00E68E5
:10028000002E00F0FD8041F20042C4F2010204237E
:1002900040F2004E904208BF03234FF6FF7CC4F2A9
:1002A000010E009300240123C1F2100C4FF0000A4C
:1002B0004FF000094BE000BF41F20002C4F201021E
:1002C000009F904208BF022704F00C030F229A40BF
:1002D0002BEA020207FA03F34FEA9A051A4346F89B
:1002E00025204E6840F20C45F202DEF8082054BF8B
:1002F00022EA080242EA0802C4F20105CEF8082008
:100300002A68B30254BF22EA080242EA08022A60BD
:10031000B303DEF8042054BF22EA080242EA0802CE
:10032000F303CEF80420DEF800204FF0010354BFA1
:1003300022EA080242EA0802CEF800200E680AF11A
:10034000010A36FA0AF204F1040400F0998003FA73
:100350000AFB16EA0B08F1D04E68664512DC122E35
:1003600056D8DFE806F0350B4D49555555555555CE
:100370005555555555555545510000BFD1F80C9070
:1003800046E000BF4FF6FF72C1F2210296420FDC39
:100390000022C1F2110296421AD00022C1F21202CA
:1003A000964215D00022C1F22102964210D02FE0D1
:1003B0000022C1F2220296420AD00022C1F231028A
:1003C000964205D00022C1F23202964220D100BFEF
:1003D0008A684AB1012A14BFC0F814B0C0F810B03E
:1003E0004FF0080914E000BF4FF0040910E000BF0F
:1003F000CA6802F104090BE04FF0000908E000BFF1
:10040000CA6802F1080903E0CA6802F10C0900BFDA
:1004100002462646B8F5807F24BF0432203E176886
:100420000F25B54027EA050509FA06F6354315609C
:10043000CA79D2067FF582AF41F21803C4F20203F3
:100440001A68AEF57E7642F001021A601A6802F070
:1004500001020192019A2AF0030256F802B040F616
:100460000002C4F20102904208D040F60042C4F2F9
:10047000010290427FF420AF012725E7002723E700
:1004800002B0BDE8F08F0000002A08BF0904016136
:100490007047000040F20C10C2F200000068704784
:1004A00040F24C0040F20C11C2F20000C2F2000116
:1004B00000780A68104408607047000080B542F276
:1004C0000000C4F20200016841F010010160032045
:1004D00000F08CF80F2000F005F800F027F800205D
:1004E00080BD000070B540F24C06C2F2000640F23A
:1004F00054013278C2F200014FF47A730968B3FBF9
:10050000F2F20446B1FBF2F1084600F05DFB0F2C5D
:100510004FF0010508D838B94FF0FF3021460022CE
:10052000002500F037F87460284670BD82B041F2B3
:100530001800C4F202000168042241F001010160C8
:10054000016801F0010101910199416841F0805178
:100550004160406800F08050009000980420C4F290
:100560000100016862F31A61016002B07047000087
:10057000002848BF704700F01F01012202FA01F174
:100580001C2202EAD0004EF20012CEF2000281508C
:100590007047000010B54EF60C5CCEF2000CDCF893
:1005A0000030C3F3022E8EF00704042C28BF04246D
:1005B000BEF103034FF0FF3E0EFA04F438BF0023F0
:1005C000A14399400EFA03F39A43114300F00F023E
:1005D00000F160430901043A03F5644362440028D2
:1005E00048BF02F10C03197010BD00004EF60C510B
:1005F000CEF200010A684FF6FF031A4060F30A22A8
:1006000042F0806040F0FD7008607047002804BF31
:10061000012070472DE9F04381B042F20008C4F296
:1006200002080446D8F800000D4600F00700884292
:100630000CD2D8F8000020F007002843C8F80000CA
:10064000D8F8000000F00700A8426CD1206841F201
:1006500004098107C4F2020917D5410705D5D9F865
:10066000001041F4E061C9F80010010705D5D9F880
:10067000001041F46051C9F80010D9F80010A268C8
:1006800021F0F0011143C9F80010C00742D1D8F899
:10069000000000F00700A8420CD9D8F8000020F0B4
:1006A00007002843C8F80000D8F8000000F0070051
:1006B000A84238D12068410707D5D9F80010E26870
:1006C00021F4E0611143C9F80010000708D5D9F8FA
:1006D0000000216920F4605040EAC100C9F8000020
:1006E000D9F8002002F00C00082841F20020C0F2E6
:1006F0007A004DD141F2A873C2F38341C0F60003E2
:10070000595CD20338D440F60010C0F23D00484393
:100710003EE000BF606859F8041C022808D0012898
:1007200026D1890306D4012001B0BDE8F08300BFC3
:100730008901F8D5D9F8001021F003010843C9F860
:100740000000FFF7A7FE064641F28837D9F80000FF
:10075000616800F00C00B0EB810F98D0FFF79AFEB3
:10076000801BB842F2D9032001B0BDE8F08300BF7E
:100770008907D8D5DEE700BFD9F8002041F2A6737B
:10078000C2F34042C0F600039A5C4843B0FBF2F06B
:10079000D9F8001041F29672C1F30311C0F60002BD
:1007A000515C40F2540220FA01F140F25000C2F2D2
:1007B00000000068C2F200021160FFF793FE002003
:1007C00001B0BDE8F0830000002804BF012070479D
:1007D0002DE9F04182B00446007841F20006C007DE
:1007E000C4F202060CD0706800F00C00042840F03F
:1007F00081803068800303D56068002800F046815E
:10080000207880071BD5706810F00C0F09D0706835
:1008100000F00C00082840F087807068C00300F1E9
:1008200083803068800703D52069012840F02E813D
:100830003068616920F0F80040EAC100306020783B
:10084000000713D4207840072CD4E569002D00F070
:100850001881706800F00C00082840F0A780012D76
:1008600040F00481012002B0BDE8F081A0690028B9
:1008700000F084800020C4F242200121C0F88014DE
:10088000FFF708FE054600BF706A800700F1B280DE
:10089000FFF700FE401B0228F6D9032002B0BDE896
:1008A000F08100BFF0695FEAC00808D4F06940F049
:1008B0008050F061F06900F080500090009847F29D
:1008C0000007C4F200073868C00549D4386840F40E
:1008D00080703860FFF7DEFD054600BF3868C00550
:1008E0003ED4FFF7D7FD401B6428F7D9032002B0A0
:1008F000BDE8F081706800F00C00082803D1706832
:10090000C0033FF576AF61683068002900F00C81C4
:10091000B1F5A02F00F00081B1F5803F40F01A81C1
:1009200040F480301CE100BF2069002840F2000044
:10093000C4F2422000F0888001210160FFF7AAFD87
:10094000054600BF306880073FF572AFFFF7A2FD94
:10095000401B0228F6D9032002B0BDE8F08100BF99
:10096000E168306A002900F09D80052900F092803E
:10097000012940F0AF8040F00100B1E00020C4F256
:1009800042200021C0F88014FFF784FD054600BF17
:10099000706A80077FF556AFFFF77CFD401B022889
:1009A000F6D9032002B0BDE8F08100BF0027C4F2F1
:1009B000422700203866FFF76DFD022D05460DD158
:1009C0003068800140F1DE80FFF764FD401B0228A3
:1009D0004FF00300F4D902B0BDE8F0813068800127
:1009E0004FD5FFF757FD401B02284FF00300F5D904
:1009F000F1E700BF40F25400C2F20000006844F684
:100A0000D351C1F26201A0FB0101480A019000BF6D
:100A100000BF0198411E002801913FF413AF00BFB1
:100A20000198411E002801913FF40CAF00BF0198CE
:100A3000411E002801913FF405AF00BF0198411EFF
:100A400000280191E4D1FDE600210160FFF722FDBD
:100A5000054600BF306880077FF5F1AEFFF71AFD4D
:100A6000401B02284FF00300F4D9B4E77068216AF4
:100A700000F480328A4209D1616A00F47010884221
:100A800004D1002002B0BDE8F08100BF012002B017
:100A9000BDE8F08140F004003062306A40F00100AF
:100AA0001EE000BF20F001003062306A20F0040038
:100AB0003062FFF7EFFC054641F28837306A800765
:100AC00020D5FFF7E7FC401BB8424FF00300F5D9F3
:100AD00081E700BF20F001003062306A20F004009E
:100AE0003062FFF7D7FC054641F28837306A80074D
:100AF00008D4FFF7CFFC401BB842F7D9032002B05F
:100B0000BDE8F081B8F1000F3FF59FAEF06920F02D
:100B10008050F06199E600BF40F48020306030687A
:100B200040F480301CE000BF20F48030306030683A
:100B300020F480203060FFF7ADFC0546306880036C
:100B40007FF55EAEFFF7A6FC401B64284FF0030064
:100B5000F4D940E720F480303060306820F4802001
:100B60003060FFF797FC0546306880033FF548AEDC
:100B7000FFF790FC401B6428F6D9032002B0BDE8C3
:100B8000F08100BF206AB0F5803F05D17168A2688E
:100B900021F40031114371607168626A21F47411AB
:100BA00011430843706001203866FFF773FC044668
:100BB000306880013FF565AFFFF76CFC001B022831
:100BC0004FF00300F4D906E7411E0020B0EB116F8F
:100BD0001CBF012070474EF21002CEF2000251609D
:100BE0004EF62351CEF20001F0230B7007219060E6
:100BF00011607047704700007047000090F83C207B
:100C0000012A4FF0020236D010B580F83D2002686C
:100C1000D2F804E0D2F808C00C682EF07003234329
:100C200040F2FF74C4F20004A24253600ADCB2F145
:100C3000804F13D040F20043C4F200039A420DD01B
:100C400011E000BF42F60043C4F201039A4205D00E
:100C500040F60003C4F200039A4204D149682CF024
:100C60008003194391600121002280F83D1080F833
:100C70003C20BDE81040104670470000002804BF2B
:100C80000120704710B590F83D1031B9002180F86F
:100C90003C10044600F070F82046022180F83D1018
:100CA000016840F2FF740B68C4F2000442F6004C85
:100CB000A142C4F2010C15DCB1F1804F1AD040F210
:100CC0000042C4F20002914214D0A14218DCB1F1FA
:100CD000804F1DD040F20042C4F20002914217D072
:100CE0001AE000BF614505D040F60002C4F20002E0
:100CF0009142EAD1826823F070031343A142E6DDFA
:100D0000614505D040F60002C4F20002914203D1D1
:100D1000026923F440731343846923F08002D0F8FE
:100D200004E0C368224361450A60CB62C1F828E051
:100D300002D14269CCF8302001224A610B69DB07FD
:100D400003D00B6923F001030B6180F8462080F883
:100D50003E2080F83F2080F8402080F8412080F835
:100D6000422080F8432080F8442080F8452080F815
:100D70003D20002010BD000080B586B00068002135
:100D8000B0F1804FCDE904110391029102D006B079
:100D900080BD00BF41F21800C4F20200426842F078
:100DA00001024260426802F001020192019A026867
:100DB00042F004020260006800F004000190019813
:100DC0000220CDE9020140F600000491C4F20100C6
:100DD00002A9FFF751FA1C2000210022FFF7DAFBDD
:100DE0001C20FFF7C5FB06B080BD000090F83D1049
:100DF00001291CBF01207047022180F83D100068C6
:100E000040F2FF72C168C4F20002904241F0010159
:100E1000C16009DCB0F1804F12D040F20041C4F251
:100E2000000188420CD012E042F60041C4F20101F8
:100E3000884205D040F60001C4F20001884206D184
:100E4000816801F00701062904BF0020704701688E
:100E500041F0010101600020704700007047000070
:100E600070B504460068C5680669B10716D515F067
:100E7000020113D06FF00201016101212177806925
:100E8000800703D02046FFF7E9FF05E0204600F089
:100E9000B9F8204600F03AFA00202077700719D5FB
:100EA00015F0040016D020686FF0040101610221E2
:100EB0002177806910F4407F04D02046FFF7CEFFF1
:100EC00006E000BF204600F09DF8204600F01EFA24
:100ED00000202077300717D515F0080014D02068BF
:100EE0006FF00801016104212177C069800703D0F8
:100EF0002046FFF7B3FF05E0204600F083F82046C8
:100F000000F004FA00202077F00619D515F0100043
:100F100016D020686FF01001016108212177C069A7
:100F200010F4407F04D02046FFF798FF06E000BF92
:100F3000204600F067F8204600F0E8F9002020770E
:100F4000F00718BF15F0010002D1300609D412E0F5
:100F500020686FF001010161204600F0D9F93006E8
:100F600009D515F0800006D020686FF0800101617E
:100F70002046FFF73FFE700609D515F0400006D069
:100F800020686FF040010161204600F099FAB00638
:100F900058BF70BD15F0200008D021686FF0200206
:100FA00020460A61BDE87040FFF726BE70BD000014
:100FB00080B586B00068B0F1804F4FF00000CDE9F9
:100FC0000400CDE9020001D006B080BD41F2180056
:100FD000C4F20200016841F004010160006802A946
:100FE00000F004000190019801200290022003907B
:100FF000059040F60000C4F20100FFF73DF906B08D
:1010000080BD00007047000090F83C30012B04BF09
:10101000022070474FEAB202032A00F2F1802DE964
:10102000F043DFE802F003A53B7500BF036842F61A
:1010300000461D6A1A6AC4F2010622F001021A6211
:101040001A465C6852F818CFB3428E68D1F800E0B7
:1010500025F0020545EA06050CD1CE68D1E90578F0
:1010600024F4407425F00C0526F004063C43354377
:1010700044EA08042CF0730747EA0E075C609F619E
:101080004F6809695F631D629F6947F008079F61A8
:101090009F6927F004079F61A6E000BF036842F63E
:1010A00000461D6A1A6AC4F2010622F480721A62AE
:1010B0001A46D3F804C052F81CEFB3428E680C688D
:1010C00025F4007545EA06250FD1CE68D1E90598CB
:1010D000360240F2FF4725F44065BE4335432CF409
:1010E000405748EA090647EA061C2EF073072743D3
:1010F000C3F804C0DF614F680969DF631D62DF69FF
:1011000047F00807DF61DF6927F00407DF616BE064
:10111000036842F60047D3F820C01A6AC4F20107F8
:1011200022F480521A621A465C6852F81C5FD1F8A9
:1011300000E08E68BB4204D14F6924F4804444EA45
:1011400087142CF4005747EA063725F4E64646EAAA
:101150000E265C60DE614E6809691E641F62DF69ED
:1011600047F40067DF61DF6927F48067DF613AE0F9
:10117000036842F600461D6A1A6AC4F2010622F0AC
:1011800010021A621A46D3F804C052F8184FB3423C
:101190008E68D1F800E025F0200545EA06150FD14C
:1011A000CE68D1E905986FF0400725F0C00507EA41
:1011B000061635432CF4406748EA090647EA860CD0
:1011C00024F4E64444EA0E27C3F804C09F614F6844
:1011D00009699F631D629F6947F400679F619F696A
:1011E00027F480679F610902136819431160002189
:1011F000BDE8F043002280F83C200846704700BF5D
:101200000121002280F83C2008467047002804BFD6
:101210000120704710B590F83D1031B9002180F8D9
:101220003C10044600F070F82046022180F83D1082
:10123000016840F2FF740B68C4F2000442F6004CEF
:10124000A142C4F2010C15DCB1F1804F1AD040F27A
:101250000042C4F20002914214D0A14218DCB1F164
:10126000804F1DD040F20042C4F20002914217D0DC
:101270001AE000BF614505D040F60002C4F200024A
:101280009142EAD1826823F070031343A142E6DD64
:10129000614505D040F60002C4F20002914203D13C
:1012A000026923F440731343846923F08002D0F869
:1012B00004E0C368224361450A60CB62C1F828E0BC
:1012C00002D14269CCF8302001224A610B69DB0768
:1012D00003D00B6923F001030B6180F8462080F8EE
:1012E0003E2080F83F2080F8402080F8412080F8A0
:1012F000422080F8432080F8442080F8452080F880
:101300003D20002010BD0000704700007047000025
:101310000068B0F1804F01D0704700BF40F200027A
:10132000C2F200021078042888BF7047DFE800F09E
:1013300004763C5C1C0000BF40F2B800C2F2000022
:1013400041680131CA087C2A4FF0000288BF0021A1
:101350004160C72988BF012241F20000C4F20100A8
:101360004FF40051FFF790B840F2B801C2F200010B
:10137000486840F2A3620130904288BF0020642890
:10138000486058D3C82861D3B0F5967F53D3B0F5E1
:10139000167F5BD3B0F52F7F4DD3B0F5487F55D383
:1013A00080080022E028D5E740F2B800C2F2000031
:1013B0000178836802EB81025268013393428360B3
:1013C00007D3002201318260CAB2112A88BF0021EE
:1013D000017001F0010241F20000C4F201004FF47B
:1013E0000051FFF751B800BF40F2B801C2F200014E
:1013F000486840F213520130904288BF00206428B0
:10140000486018D3C82821D3B0F5967F13D3B0F520
:10141000C87F1BD3800800227C289BE740F2B801DC
:10142000C2F2000148680130C2087C2A88BF00204F
:101430006428486008D2002241F20000C4F2010092
:101440004FF40051FFF720B8C82809D2012241F219
:101450000000C4F201004FF40051FFF715B800BFBF
:10146000800800224A2875E7B0B5044690F83C0091
:1014700001284FF0020008BFB0BD012584F83C50A0
:1014800084F83D00204600F031F800284FF00100BC
:1014900006D0002184F83D5084F83C10B0BD00BF58
:1014A0002068C16821F04001C160C16821F4804119
:1014B000C1600020002184F83D5084F83C10B0BD8C
:1014C00070470000FEE70000FEE70000FEE70000B6
:1014D0007047000070470000FEF7E2BF7047000051
:1014E00040F2C400C2F20000FFF7BABC80B5D0F8E9
:1014F00000E0DEF80800D1E900C320F0770023F017
:10150000070210434FEA331340EA0C00072BCEF8D2
:1015100008000CD80020DFE803F005050505071DCD
:10152000370D00BF80BD00BFBCF1050F46D10120C3
:1015300080BD00BFD1E902020969DEF8083010431E
:1015400023F47F4340EA01201843CEF8080000202E
:1015500080BD00BF88680969DEF82020DEF82030F1
:1015600022F00A0223F00103CEF82030DEF8183012
:10157000104323F0F00343EA0111CEF81810CEF81F
:101580002000002080BD00BF88680969DEF82020A7
:10159000DEF8203022F0A00223F01003CEF8203035
:1015A000DEF8183042EA001023F4704343EA0131B8
:1015B000CEF81810CEF82000002080BDDEF8200004
:1015C000DEF8202022F00102CEF82020DEF81820DC
:1015D000096922F0F00242EA0111CEF81810CEF8A3
:1015E0002000002080BD0000FEE7000092B0FEF762
:1015F00065FF00240120CDE90544CDE903440090B6
:1016000004904FF4E0104FF48031022509906846B1
:10161000CDE90114CDE90751FFF7D6F820B1EFF37A
:10162000108072B6FEE700BF0F20CDE90D054FF424
:101630008060CDE910040DA802210F94FEF7E6FFAB
:1016400020B1EFF3108072B6FEE700BF002541F233
:101650001800CDE90255CDE90055C4F20200016839
:1016600041F2000441F0100101600168C4F201047C
:1016700001F010010D910D990168002241F0200147
:10168000016001684FF4005601F020010D910D99A1
:10169000016841F00401016000684FF4005100F05E
:1016A00004000D900D982046FEF7EEFE0120CDE9D6
:1016B000010502200390694620460096FEF7DCFDF6
:1016C00040F2C400C2F200004FF0804140F2E73324
:1016D0001095CDE90A55CDE90555CDE903554722C9
:1016E00080E82600C0E903358561FFF7C7FA28B115
:1016F000EFF3108072B600BFFEE700BF40F2C400F7
:10170000C2F20000FFF782FD20B1EFF3108072B645
:10171000FEE700BF04200D9060200E9000200F9087
:10172000119040F2C400C2F200000DA9FFF79CFE28
:1017300020B1EFF3108072B6FEE700BF40F2C400A4
:10174000C2F200000AA9FFF759FA28B1EFF310809E
:1017500072B600BFFEE700BF602000900020CDE918
:101760000100049040F2C400C2F200006946002269
:10177000FFF74AFC20B1EFF3108072B6FEE700BF1E
:1017800040F2C404C2F200042046FFF711FC2046D8
:10179000FFF72CFBFEE70000000000000000010244
:1017A00003040607080901020203040506070809E5
:1017B0000A0B0C0D0E0F1010D817000800000020A7
:1017C00058000000500100083018000858000020A0
:1017D000B80600007001000803000000640000006B
:1017E0006400000064000000640000006400000069
:1017F000640000002C010000640000002C010000C7
:10180000640000002C01000064000000640000007F
:101810006400000064000000640000006400000038
:10182000BC020000010000001000000000127A005D
:04000005080000ED02
:00000001FF
